:020000040000FA
:020000000000FE
:0600020080EF3AF012004D
:1070000003EF38F0120014EE00F024EE00F0F86AFE
:107010000D9C3DEC3EF0DEEC3EF001EC00F0FBD7C9
:0270200012005C
:0E702200D9CFE6FFE1CFD9FFFD0EDBCFF6FFA1
:10703000FE0EDBCFF7FF060ED890F636F736E806E1
:10704000FBE1F86A940EA66EF29E550EA76EAA0E8C
:10705000A76EA682E552E7CFD9FF1200D9CFE6FF8F
:10706000E1CFD9FF020EE126FA0EDB50E76E010EEA
:10707000E7CFDBFFFD0EDBCFF6FFFE0EDBCFF7FF2A
:10708000F86ADF6A200EDF5C14E2010EDB50E76E67
:10709000FB0EDBCFE9FFFC0EDBCFEAFFE750E92672
:1070A000000EEA22EF50F56E0D00010EDB2ADF2AFA
:1070B000E9D7840EA66EF29EFD0EDBCFF6FFFE0E24
:1070C000DBCFF7FFF86A550EA76EAA0EA76EA68251
:1070D000A694020EE15C02E2E16AE552E16EE5523D
:1070E000E7CFD9FF1200D9CFE6FFE1CFD9FFE652B3
:1070F000FD0EDBCFF6FFFE0EDBCFF7FFF86ADF6A8F
:10710000DFCF00F03F0EE76E0018E8AE02D0E734A4
:1071100002D0E750005C12E20900DFCF00F0016A04
:1071200000BE0168FB0EDB500024E96EFC0EDB5054
:107130000120EA6EF5CFEFFFDF2AE2D7E552E552F4
:10714000E7CFD9FF1200D9CFE6FFE1CFD9FFE65252
:10715000DF6AFB0EDBCFF6FFFC0EDBCFF7FFFD0E89
:10716000DBCFF8FFFA0EDB50F56E0D00840EA66E35
:10717000F29EFB0EDBCFF6FFFC0EDBCFF7FFFD0E22
:10718000DBCFF8FF550EA76EAA0EA76EA682A694B7
:10719000E552E552E7CFD9FF1200D9CFE6FFE1CFA4
:1071A000D9FFF668F7683F0EF86E0800FD0EDBCFDA
:1071B000E9FFFE0EDBCFEAFFF5CFEFFFE552E7CFA9
:0471C000D9FF1200E1
:0C71C400D9CFE6FFE1CFD9FFD950FD0F75
:1071D000E96EFF0EDA20EA6EFF0ED880EE54010E43
:1071E000ED540BE3FD0EDBCF00F0FE0EDBCF01F024
:1071F000000E005C000E015802E2000E0CD0FD0EE5
:10720000DBCFE6FFFE0EDBCFE6FF11EC38F0E552F8
:10721000E552010E00D0E552E7CFD9FF1200D9CFD9
:10722000E6FFE1CFD9FFD950FD0FE96EFF0EDA205E
:10723000EA6EFF0ED880EE54010EED540BE3FD0E06
:10724000DBCF00F0FE0EDBCF01F0000E005C000E85
:10725000015802E2000E41D0E66AFB0EDBCFE6FFEA
:10726000FC0EDBCFE6FFFD0EDBCF00F0FE0EDBCF2A
:1072700001F0060ED89000360136E806FBE100C0AA
:10728000E6FF01C0E6FF2EEC38F0026E050EE15E6F
:107290000250200EE66EFB0EDBCFE6FFFC0EDBCFCE
:1072A000E6FFFD0EDBCF00F0FE0EDBCF01F0060E99
:1072B000D89000360136E806FBE1200E0026000ECD
:1072C000012200C0E6FF01C0E6FF2EEC38F0026E9E
:1072D000050EE15E0250010E00D0E552E7CFD9FF66
:1072E0001200D9CFE6FFE1CFD9FFD950FD0FE96EEB
:1072F000FF0EDA20EA6EFF0ED880EE54010EED5438
:107300000BE3FD0EDBCF00F0FE0EDBCF01F0000E35
:10731000005C000E015802E2000E1ED0FB0EDBCF17
:10732000E6FFFC0EDBCFE6FFFD0EDBCF00F0FE0E2E
:10733000DBCF01F0060ED89000360136E806FBE1FF
:1073400000C0E6FF01C0E6FF73EC38F0E552E552FD
:10735000E552E552010E00D0E552E7CFD9FF120009
:10736000D9CFE6FFDACFE6FFE1CFD9FFE2CFDAFFF0
:10737000E652C950DF6E9E96C96A9EA6FED7C950D6
:0E738000E552E552E5CFDAFFE7CFD9FF120064
:02738E00000EEF
:10739000F36E00EE00F0060E01D81200EA6002D093
:0E73A000EE6AFCD7F350E9601200EE6AFCD7EB
:10750000D9CFE6FFE1CFD9FF8B8012D882B00AD065
:10751000D950BA0FE66EFF0EDA20E66E0ED8E552AD
:10752000E552F4D702EF00F0E552E7CFD9FF1200A1
:10753000D38AD388D3A4FED71200D9CFE6FFE1CFF8
:10754000D9FF040EE126FD0EDBCFE9FFFE0EDBCFF7
:10755000EAFF400EE926000EEA22E9CF00F0EACF6A
:1075600001F000C0E6FF01C0E6FF46EC3DF0E55249
:10757000E552FD0EDBCFE9FFFE0EDBCFEAFF400E4A
:10758000E926000EEA22EF50110801E0D4D0FD0EEA
:10759000DBCFE9FFFE0EDBCFEAFF410EE926000E4E
:1075A000EA22E9CF00F0EACF01F000C0E6FF01C017
:1075B000E6FF5FEC3DF0E552E552FD0EDBCFE9FF63
:1075C000FE0EDBCFEAFF410EE926000EEA22020E94
:1075D000E926000EEA22EFCF00F0016A026A036A90
:1075E000100E1F0B07E0D890003601360236033626
:1075F000E806F9E1FD0EDBCFE9FFFE0EDBCFEAFF87
:10760000410EE926000EEA22010EE926000EEA22CA
:10761000EFCF04F004C005F0046A066A076A04505C
:107620000012055001120650021207500312FD0EFF
:10763000DBCFE9FFFE0EDBCFEAFF410EE926000EAD
:10764000EA22EFCF08F0096A0A6A0B6A08500012B2
:10765000095001120A5002120B50031200C0DFFF42
:10766000010E01C0DBFF020E02C0DBFF030E03C0F0
:10767000DBFF400EE66EFD0EDBCFE9FFFE0EDBCF3B
:10768000EAFFE9CF00F0EACF01F000C0E6FF01C059
:10769000E6FF88EC3DF0E552E552E552D9CFE9FF2F
:1076A000DACFEAFFEECF00F0EECF01F0EECF02F03E
:1076B000EFCF03F0060ED8900332023201320032CF
:1076C000E806F9E100C0E6FF01C0E6FFE2EC38F0B1
:1076D000E552E552FD0EDBCFE9FFFE0EDBCFEAFF00
:1076E000E9CF00F0EACF01F000C0E6FF01C0E6FFFD
:1076F000D9CFE9FFDACFEAFFEECF02F0EECF03F009
:10770000EECF04F0EFCF05F0060ED890053204322C
:1077100003320232E806F9E102C0E6FF03C0E6FFE9
:107720000FEC39F0E552E552E552E552E668F7EC28
:107730003DF0E552A1D1FD0EDBCFE9FFFE0EDBCF20
:10774000EAFF400EE926000EEA22EF50220801E08F
:10775000B1D0FD0EDBCFE9FFFE0EDBCFEAFF410E1D
:10776000E926000EEA22E9CF00F0EACF01F000C0DE
:10777000E6FF01C0E6FF5FEC3DF0E552E552FD0E8D
:10778000DBCFE9FFFE0EDBCFEAFF410EE926000E5C
:10779000EA22020EE926000EEA22EFCF00F0016A8B
:1077A000026A036A100E1F0B07E0D89000360136FC
:1077B00002360336E806F9E1FD0EDBCFE9FFFE0EE7
:1077C000DBCFEAFF410EE926000EEA22010EE92690
:1077D000000EEA22EFCF04F004C005F0046A066A46
:1077E000076A045000120550011206500212075099
:1077F0000312FD0EDBCFE9FFFE0EDBCFEAFF410EE9
:10780000E926000EEA22EFCF08F0096A0A6A0B6A3D
:1078100008500012095001120A5002120B500312B4
:1078200000C0DFFF010E01C0DBFF020E02C0DBFF64
:10783000030E03C0DBFFFD0EDBCFE9FFFE0EDBCF47
:10784000EAFFE9CF00F0EACF01F000C0E6FF01C097
:10785000E6FFD9CFE9FFDACFEAFFEECF02F0EECFB5
:1078600003F0EECF04F0EFCF05F0060ED89005320E
:10787000043203320232E806F9E102C0E6FF03C037
:10788000E6FF71EC39F0E552E552E552E552FD0EA6
:10789000DBCFE9FFFE0EDBCFEAFFE9CF00F0EACF56
:1078A00001F000C0E6FF01C0E6FFC0EC3DF0E5528C
:1078B000E552E2D0FD0EDBCFE9FFFE0EDBCFEAFFA3
:1078C000400EE926000EEA22EF50440826E1FD0EA4
:1078D000DBCFE9FFFE0EDBCFEAFF440EE926000E08
:1078E000EA22E9CF00F0EACF01F000C0E6FF01C0D4
:1078F000E6FFCDEC38F0E552E552FD0EDBCFE9FFB7
:10790000FE0EDBCFEAFF440EE926000EEA22EF501E
:10791000E66EF7EC3DF0E552AFD0FD0EDBCFE9FFB0
:10792000FE0EDBCFEAFF400EE926000EEA22EF5002
:10793000330801E0A1D0FD0EDBCFE9FFFE0EDBCF67
:10794000EAFF410EE926000EEA22E9CF00F0EACF75
:1079500001F000C0E6FF01C0E6FF5FEC3DF0E5523C
:10796000E552FD0EDBCFE9FFFE0EDBCFEAFF410E55
:10797000E926000EEA22020EE926000EEA22EFCFE7
:1079800000F0016A026A036A100E1F0B07E0D8902C
:107990000036013602360336E806F9E1FD0EDBCF8C
:1079A000E9FFFE0EDBCFEAFF410EE926000EEA22D8
:1079B000010EE926000EEA22EFCF04F004C005F024
:1079C000046A066A076A0450001205500112065044
:1079D000021207500312FD0EDBCFE9FFFE0EDBCFD4
:1079E000EAFF410EE926000EEA22EFCF08F0096A0D
:1079F0000A6A0B6A08500012095001120A5002125A
:107A00000B50031200C0DFFF010E01C0DBFF020EAE
:107A100002C0DBFF030E03C0DBFF010EE66EFD0EAE
:107A2000DBCFE9FFFE0EDBCFEAFFE9CF00F0EACFC4
:107A300001F000C0E6FF01C0E6FF88EC3DF0E55232
:107A4000E552E552FD0EDBCFE9FFFE0EDBCFEAFF8C
:107A5000EF50E66ED9CFE9FFDACFEAFFEECFE6FFCF
:107A6000EECFE6FFEECFE6FFEFCFE6FFA3EC38F078
:107A7000006E050EE15E0050040EE15C02E2E16A78
:0C7A8000E552E16EE552E7CFD9FF12009D
:047A8C00D9CFE6FF69
:107A9000E1CFD9FFE652C3D8FD0EDBCFE6FFFE0EE5
:107AA000DBCFE6FFD6D8E552E552A50EE66EC3D889
:107AB000E552C69AE552E552E7CFD9FF1200D9CF79
:107AC000E6FFE1CFD9FFE652AAD8DF6A030EDF5CFA
:107AD00019E2DF50E76EFD0EDBCF00F0FE0EDBCFCC
:107AE00001F0E7500026000E012200C0E6FF01C0B1
:107AF000E6FFAFD8E552E552A50EE66E9CD8E552FA
:107B0000DF2AE4D7C69AE552E552E7CFD9FF120043
:107B1000D9CFE6FFE1CFD9FF020EE12680D8010ED2
:107B2000DB6AFC0EDB50F36E010EDBCFF4FFF3508B
:107B3000F45C1BE2010EDB50E76EFD0EDBCF00F0C4
:107B4000FE0EDBCF01F0E7500026000E012200C040
:107B5000E6FF01C0E6FF7DD8E552E552A50EE66ED0
:107B60006AD8E552010EDB2ADCD7C69A020EE15C28
:107B700002E2E16AE552E16EE552E7CFD9FF120079
:107B8000D9CFE6FFE1CFD9FF020EE12648D8010E9A
:107B9000DB6A400EF36E010EDBCFF4FFF350F45CB2
:107BA0001BE2D9CFE6FFDACFE6FF53D8E552E55224
:107BB000010EDB50E76EFD0EDBCFE9FFFE0EDBCFE3
:107BC000EAFFE750E926000EEA22EF50E66E33D8CE
:107BD000E552010EDB2ADDD7C69A020EE15C02E215
:107BE000E16AE552E16EE552E7CFD9FF1200D9CF45
:107BF000E6FFE1CFD9FFE65212D8D9CFE6FFDACFC0
:107C0000E6FF27D8E552E552FE0EDBCFE6FF13D89C
:107C1000E552C69AE552E552E7CFD9FF1200C69A5F
:107C2000E66A010EE66E050EE66E8CEC3EF0E5525D
:107C3000E552E5521200D9CFE6FFE1CFD9FFFE0EA3
:107C4000DBCFE6FFC0EC3EF0E552E552E7CFD9FFCF
:107C50001200D9CFE6FFE1CFD9FFB0EC39F0E66EE4
:107C6000FD0EDBCFE9FFFE0EDBCFEAFFE552E7506A
:0A7C7000EF6EE552E7CFD9FF1200D6
:067C7A00000EF66E000E84
:107C8000F76E000EF86E00010900F550856F0900CF
:107C9000F550866F03E1856701D03DD00900F550AE
:107CA000806F0900F550816F0900F550826F09005F
:107CB0000900F550E96E0900F550EA6E0900090067
:107CC0000900F550836F0900F550846F0900090021
:107CD000F6CF87F0F7CF88F0F8CF89F080C0F6FFB5
:107CE00081C0F7FF82C0F8FF0001835302E1845393
:107CF00007E00900F550EE6E8307F8E28407F9D734
:107D000087C0F6FF88C0F7FF89C0F8FF000185072C
:087D1000000E865BBFD71200D4
:087D1800D9CFE6FFDACFE6FF48
:107D2000E1CFD9FFE2CFDAFF3F0EC716C66AFD0EDC
:107D3000DB50C612FB0EDB50C712FC0EDB50030AF1
:107D400009E0010A04E0020A06E1C78C04D0C78CEE
:107D5000C68801D0C688FD0EDB50050A05E0010A81
:107D600005E19486928A03D0948601D094969488F3
:107D7000949AC68AE552E5CFDAFFE7CFD9FF120021
:107D8000D9CFE6FFDACFE6FFE1CFD9FFE2CFDAFFC6
:107D9000E652C950DF6E9E96C69EFD0EDB50C96E40
:107DA000C6AE02D0FF0E03D09EA6FED7000EE5524F
:0C7DB000E552E5CFDAFFE7CFD9FF120063
:027DBC001200B3
:020000040030CA
:0100010008F6
:010002001EDF
:010003001EDE
:0100060001F8
:00000001FF
